S014000054696D65725F5461736B5F372E7372656387
S11300000C9472000C9484000C9484000C9484006E
S11300100C9484000C9484000C9484000C94D901F6
S11300200C9402020C942B020C9452020C947B024A
S11300300C9484000C9484000C9484000C9484002C
S11300400C9484000C9484000C9484000C9484001C
S11300500C948400C300DC00F5000E012601260187
S11300602601260126012601260126012601260154
S11300702601260126012601260126012601260144
S11300802601260126012601260126012601260134
S113009026012601C300DC00F5000E0133014C01EA
S11300A065017E01960196019601960196019601DD
S11300B09601960196019601960196019601960184
S11300C09601960196019601960196019601960174
S11300D096019601960196019601960133014C0111
S11300E065017E0111241FBECFE5D8E0DEBFCDBF80
S11300F020E0A0E6B0E001C01D92A236B207E1F70D
S11301000E9486000C9489020C94000060E081E453
S11301100E94AB0060E081E40E94B3000E9497015A
S113012060E081E40E94AF0081E69BED0E94B9018A
S113013080E00E94BC010E94CF0160E081E40E9443
S1130140B30087EF92EC0E94B90180E00E94BC01E9
S11301500E94CF01E5CF41E00E94B700089541E03D
S11301600E942701089540E00E942701089590E02D
S1130170FC01E154F109E432F10508F067C0E65DE1
S1130180FF4F0C948302413059F42AB381E090E08C
S113019002C0880F991F6A95E2F7822B8ABB0895E3
S11301A02AB381E090E002C0880F991F6A95E2F7B4
S11301B0809582238ABB0895413059F427B381E0A6
S11301C090E002C0880F991F6A95E2F7822B87BBE3
S11301D0089527B381E090E002C0880F991F6A95C3
S11301E0E2F78095822387BB0895413059F424B304
S11301F081E090E002C0880F991F6A95E2F7822B94
S113020084BB089524B381E090E002C0880F991F55
S11302106A95E2F78095822384BB0895413059F4AE
S113022021B381E090E002C0880F991F6A95E2F73C
S1130230822B81BB089521B381E090E002C0880F36
S1130240991F6A95E2F78095822381BB089590E017
S1130250FC01E154F109E432F10508F067C0E25B06
S1130260FF4F0C948302413059F42BB381E090E0AA
S113027002C0880F991F6A95E2F7822B8BBB089501
S11302802BB381E090E002C0880F991F6A95E2F7D2
S1130290809582238BBB0895413059F428B381E0C3
S11302A090E002C0880F991F6A95E2F7822B88BB01
S11302B0089528B381E090E002C0880F991F6A95E1
S11302C0E2F78095822388BB0895413059F425B321
S11302D081E090E002C0880F991F6A95E2F7822BB3
S11302E085BB089525B381E090E002C0880F991F73
S11302F06A95E2F78095822385BB0895413059F4CD
S113030022B381E090E002C0880F991F6A95E2F75A
S1130310822B82BB089522B381E090E002C0880F53
S1130320991F6A95E2F78095822382BB089583B76B
S11303308B7F83BF83B78D7F83BF83B78E7F83BF5C
S113034089B78B7F89BF89B78F7E89BF89B7877F3C
S113035089BF8EB58F7E8EBD8EB5877F8EBD8FB5DE
S11303608D7F8FBD8FB58E7F8FBD8EB583608EBD23
S113037008959DBD8CBD0895823041F0833051F0C5
S113038081110BC008B602FEFDCF07C008B604FEFB
S1130390FDCF03C008B603FEFDCF8FEF089588B7E5
S11303A0846088BF88B7806188BF88B7886088BF49
S11303B008951F920F920FB60F9211242F933F931B
S11303C04F935F936F937F938F939F93AF93BF9359
S11303D0EF93FF93E0916000F0916100309709F092
S11303E00995FF91EF91BF91AF919F918F917F916B
S11303F06F915F914F913F912F910F900FBE0F908E
S11304001F9018951F920F920FB60F9211242F93DD
S11304103F934F935F936F937F938F939F93AF9388
S1130420BF93EF93FF93E0916000F09161003097E8
S113043009F00995FF91EF91BF91AF919F918F9131
S11304407F916F915F914F913F912F910F900FBECC
S11304500F901F9018951F920F920FB60F921124B0
S11304602F933F934F935F936F937F938F939F93B8
S1130470AF93BF93EF93FF93E0916000F09161001D
S11304800995FF91EF91BF91AF919F918F917F91CA
S11304906F915F914F913F912F910F900FBE0F90ED
S11304A01F9018951F920F920FB60F9211242F933D
S11304B03F934F935F936F937F938F939F93AF93E8
S11304C0BF93EF93FF93E0916000F0916100309748
S11304D009F00995FF91EF91BF91AF919F918F9191
S11304E07F916F915F914F913F912F910F900FBE2C
S11304F00F901F901895E0916000F0916100309783
S113050009F009950895EE0FFF1F0590F491E02D71
S10905100994F894FFCFEA
S9030000FC
